{
  "_format": "hh-sol-artifact-1",
  "contractName": "EtherToABX",
  "sourceName": "contracts/EtherToABX.sol",
  "abi": [
    {
      "inputs": [
        {
          "internalType": "address",
          "name": "_abx_token_address",
          "type": "address"
        }
      ],
      "stateMutability": "nonpayable",
      "type": "constructor"
    },
    {
      "inputs": [
        {
          "internalType": "uint256",
          "name": "abx_amount",
          "type": "uint256"
        }
      ],
      "name": "add_ABX_liquidity",
      "outputs": [],
      "stateMutability": "nonpayable",
      "type": "function"
    },
    {
      "inputs": [],
      "name": "ethToAbx",
      "outputs": [],
      "stateMutability": "payable",
      "type": "function"
    }
  ],
  "bytecode": "0x60806040526103e86001556000600255600060035534801561002057600080fd5b506040516102a63803806102a683398101604081905261003f91610064565b600080546001600160a01b0319166001600160a01b0392909216919091179055610094565b60006020828403121561007657600080fd5b81516001600160a01b038116811461008d57600080fd5b9392505050565b610203806100a36000396000f3fe6080604052600436106100295760003560e01c80631d0aba7a1461002e5780631e8e1ae714610050575b600080fd5b34801561003a57600080fd5b5061004e61004936600461014b565b610058565b005b61004e6100dd565b60038190556000546040516323b872dd60e01b8152336004820152306024820152604481018390526001600160a01b03909116906323b872dd906064015b6020604051808303816000875af11580156100b5573d6000803e3d6000fd5b505050506040513d601f19601f820116820180604052508101906100d99190610164565b5050565b34600260008282546100ef91906101a3565b909155506000905061010034610138565b60005460405163a9059cbb60e01b8152336004820152602481018390529192506001600160a01b03169063a9059cbb90604401610096565b60006101458260026101b6565b92915050565b60006020828403121561015d57600080fd5b5035919050565b60006020828403121561017657600080fd5b8151801515811461018657600080fd5b9392505050565b634e487b7160e01b600052601160045260246000fd5b808201808211156101455761014561018d565b80820281158282048414176101455761014561018d56fea264697066735822122057563180862acf5296895ad6ac5d3992b953d3d65d1431faff3ed5cd89fab38c64736f6c63430008140033",
  "linkReferences": {},
  "deployedLinkReferences": {}
}