{
    "_format": "hh-sol-artifact-1",
    "contractName": "DAO",
    "sourceName": "contracts/DAO.sol",
    "abi": [
        {
            "inputs": [
                {
                    "internalType": "string",
                    "name": "_community_name",
                    "type": "string"
                },
                {
                    "internalType": "address",
                    "name": "token_address",
                    "type": "address"
                },
                {
                    "internalType": "address",
                    "name": "_nft_address",
                    "type": "address"
                }
            ],
            "stateMutability": "nonpayable",
            "type": "constructor"
        },
        {
            "inputs": [],
            "name": "community_name",
            "outputs": [
                {
                    "internalType": "string",
                    "name": "",
                    "type": "string"
                }
            ],
            "stateMutability": "view",
            "type": "function"
        },
        {
            "inputs": [
                {
                    "internalType": "uint256",
                    "name": "proposalId",
                    "type": "uint256"
                }
            ],
            "name": "execute",
            "outputs": [
                {
                    "internalType": "uint256",
                    "name": "",
                    "type": "uint256"
                }
            ],
            "stateMutability": "nonpayable",
            "type": "function"
        },
        {
            "inputs": [
                {
                    "internalType": "uint256",
                    "name": "contractId",
                    "type": "uint256"
                }
            ],
            "name": "getContractInfo",
            "outputs": [
                {
                    "internalType": "string",
                    "name": "",
                    "type": "string"
                }
            ],
            "stateMutability": "view",
            "type": "function"
        },
        {
            "inputs": [
                {
                    "internalType": "uint256",
                    "name": "pid",
                    "type": "uint256"
                }
            ],
            "name": "getTotalVote",
            "outputs": [
                {
                    "internalType": "uint256",
                    "name": "",
                    "type": "uint256"
                }
            ],
            "stateMutability": "view",
            "type": "function"
        },
        {
            "inputs": [],
            "name": "nft",
            "outputs": [
                {
                    "internalType": "contract ArtNFT",
                    "name": "",
                    "type": "address"
                }
            ],
            "stateMutability": "view",
            "type": "function"
        },
        {
            "inputs": [
                {
                    "internalType": "string",
                    "name": "name",
                    "type": "string"
                },
                {
                    "internalType": "string",
                    "name": "description",
                    "type": "string"
                },
                {
                    "internalType": "string",
                    "name": "art_uri",
                    "type": "string"
                },
                {
                    "internalType": "uint256",
                    "name": "abxAmountLocked",
                    "type": "uint256"
                },
                {
                    "internalType": "uint256",
                    "name": "endTime",
                    "type": "uint256"
                },
                {
                    "internalType": "uint32",
                    "name": "genreCode",
                    "type": "uint32"
                }
            ],
            "name": "propose",
            "outputs": [
                {
                    "internalType": "uint256",
                    "name": "",
                    "type": "uint256"
                }
            ],
            "stateMutability": "nonpayable",
            "type": "function"
        },
        {
            "inputs": [
                {
                    "internalType": "uint256",
                    "name": "",
                    "type": "uint256"
                }
            ],
            "name": "proposes",
            "outputs": [
                {
                    "internalType": "uint256",
                    "name": "pid",
                    "type": "uint256"
                },
                {
                    "internalType": "address",
                    "name": "proposer",
                    "type": "address"
                },
                {
                    "internalType": "string",
                    "name": "name",
                    "type": "string"
                },
                {
                    "internalType": "string",
                    "name": "description",
                    "type": "string"
                },
                {
                    "internalType": "string",
                    "name": "art_uri",
                    "type": "string"
                },
                {
                    "internalType": "uint256",
                    "name": "upvote",
                    "type": "uint256"
                },
                {
                    "internalType": "uint256",
                    "name": "downvote",
                    "type": "uint256"
                },
                {
                    "internalType": "uint256",
                    "name": "abxAmountLocked",
                    "type": "uint256"
                },
                {
                    "internalType": "uint256",
                    "name": "startTime",
                    "type": "uint256"
                },
                {
                    "internalType": "uint256",
                    "name": "endTime",
                    "type": "uint256"
                },
                {
                    "internalType": "uint32",
                    "name": "genreCode",
                    "type": "uint32"
                }
            ],
            "stateMutability": "view",
            "type": "function"
        },
        {
            "inputs": [],
            "name": "token",
            "outputs": [
                {
                    "internalType": "contract IERC20",
                    "name": "",
                    "type": "address"
                }
            ],
            "stateMutability": "view",
            "type": "function"
        },
        {
            "inputs": [
                {
                    "internalType": "uint256",
                    "name": "proposalId",
                    "type": "uint256"
                },
                {
                    "internalType": "bool",
                    "name": "approve",
                    "type": "bool"
                }
            ],
            "name": "vote",
            "outputs": [],
            "stateMutability": "nonpayable",
            "type": "function"
        }
    ],
    "bytecode": "0x60806040523480156200001157600080fd5b5060405162001388380380620013888339810160408190526200003491620000ac565b600062000042848262000235565b50600280546001600160a01b039283166001600160a01b031991821617909155600180549390921692169190911790555062000301565b634e487b7160e01b600052604160045260246000fd5b80516001600160a01b0381168114620000a757600080fd5b919050565b600080600060608486031215620000c257600080fd5b83516001600160401b0380821115620000da57600080fd5b818601915086601f830112620000ef57600080fd5b81518181111562000104576200010462000079565b604051601f8201601f19908116603f011681019083821181831017156200012f576200012f62000079565b816040528281526020935089848487010111156200014c57600080fd5b600091505b8282101562000170578482018401518183018501529083019062000151565b60008484830101528097505050506200018b8187016200008f565b935050506200019d604085016200008f565b90509250925092565b600181811c90821680620001bb57607f821691505b602082108103620001dc57634e487b7160e01b600052602260045260246000fd5b50919050565b601f8211156200023057600081815260208120601f850160051c810160208610156200020b5750805b601f850160051c820191505b818110156200022c5782815560010162000217565b5050505b505050565b81516001600160401b0381111562000251576200025162000079565b6200026981620002628454620001a6565b84620001e2565b602080601f831160018114620002a15760008415620002885750858301515b600019600386901b1c1916600185901b1785556200022c565b600085815260208120601f198616915b82811015620002d257888601518255948401946001909101908401620002b1565b5085821015620002f15787850151600019600388901b60f8161c191681555b5050505050600190811b01905550565b61107780620003116000396000f3fe608060405234801561001057600080fd5b50600436106100935760003560e01c8063c9d27afe11610066578063c9d27afe14610137578063e09414191461014c578063f512d6a614610154578063fc0c546a14610167578063fe0d94c11461017a57600080fd5b80633828de821461009857806347ccca02146100cb5780638aa3e011146100f6578063a209540a14610116575b600080fd5b6100ab6100a6366004610af2565b61018d565b6040516100c29b9a99989796959493929190610b51565b60405180910390f35b6002546100de906001600160a01b031681565b6040516001600160a01b0390911681526020016100c2565b610109610104366004610af2565b61039f565b6040516100c29190610be3565b610129610124366004610af2565b610455565b6040519081526020016100c2565b61014a610145366004610c0e565b6104b1565b005b6101096105eb565b610129610162366004610cf5565b610679565b6001546100de906001600160a01b031681565b610129610188366004610af2565b61089c565b6003818154811061019d57600080fd5b60009182526020909120600c90910201805460018201546002830180549294506001600160a01b0390911692916101d390610dd5565b80601f01602080910402602001604051908101604052809291908181526020018280546101ff90610dd5565b801561024c5780601f106102215761010080835404028352916020019161024c565b820191906000526020600020905b81548152906001019060200180831161022f57829003601f168201915b50505050509080600301805461026190610dd5565b80601f016020809104026020016040519081016040528092919081815260200182805461028d90610dd5565b80156102da5780601f106102af576101008083540402835291602001916102da565b820191906000526020600020905b8154815290600101906020018083116102bd57829003601f168201915b5050505050908060040180546102ef90610dd5565b80601f016020809104026020016040519081016040528092919081815260200182805461031b90610dd5565b80156103685780601f1061033d57610100808354040283529160200191610368565b820191906000526020600020905b81548152906001019060200180831161034b57829003601f168201915b50505060058401546006850154600786015460088701546009880154600b9098015496979396929550909350919063ffffffff168b565b6060600382815481106103b4576103b4610e0f565b90600052602060002090600c020160020180546103d090610dd5565b80601f01602080910402602001604051908101604052809291908181526020018280546103fc90610dd5565b80156104495780601f1061041e57610100808354040283529160200191610449565b820191906000526020600020905b81548152906001019060200180831161042c57829003601f168201915b50505050509050919050565b60006003828154811061046a5761046a610e0f565b90600052602060002090600c0201600601546003838154811061048f5761048f610e0f565b90600052602060002090600c0201600501546104ab9190610e25565b92915050565b6001546040516370a0823160e01b81523360048201526000916001600160a01b0316906370a0823190602401602060405180830381865afa1580156104fa573d6000803e3d6000fd5b505050506040513d601f19601f8201168201806040525081019061051e9190610e46565b9050811561056557806003848154811061053a5761053a610e0f565b90600052602060002090600c0201600501600082825461055a9190610e25565b9091555061059f9050565b806003848154811061057957610579610e0f565b90600052602060002090600c020160060160008282546105999190610e25565b90915550505b600383815481106105b2576105b2610e0f565b60009182526020808320600a600c9093020191909101805460018101825590835291200180546001600160a01b03191633179055505050565b600080546105f890610dd5565b80601f016020809104026020016040519081016040528092919081815260200182805461062490610dd5565b80156106715780601f1061064657610100808354040283529160200191610671565b820191906000526020600020905b81548152906001019060200180831161065457829003601f168201915b505050505081565b600380546040805161018081018252828152336020808301919091528183018c90528251601f8b018290048202810182019093528983526000949260608301918c908c9081908401838280828437600092018290525093855250505060208083018b9052604080840183905260608401839052608084018b90524260a085015260c084018a90528051838152808301825260e085015263ffffffff891661010090940193909352845460018082018755958352918190208451600c9093020191825583015193810180546001600160a01b0319166001600160a01b039095169490941790935581015190919060028201906107749082610eae565b50606082015160038201906107899082610eae565b506080820151600482019061079e9082610eae565b5060a0820151600582015560c0820151600682015560e082015160078201556101008201516008820155610120820151600982015561014082015180516107ef91600a840191602090910190610a78565b506101609190910151600b909101805463ffffffff191663ffffffff9092169190911790556001546040516323b872dd60e01b8152336004820152306024820152604481018790526001600160a01b03909116906323b872dd906064016020604051808303816000875af115801561086b573d6000803e3d6000fd5b505050506040513d601f19601f8201168201806040525081019061088f9190610f6e565b5098975050505050505050565b6000600382815481106108b1576108b1610e0f565b90600052602060002090600c020160060154600383815481106108d6576108d6610e0f565b90600052602060002090600c0201600501541115610a7357600154600380546001600160a01b039092169163a9059cbb91908590811061091857610918610e0f565b90600052602060002090600c020160010160009054906101000a90046001600160a01b03166003858154811061095057610950610e0f565b600091825260209091206007600c9092020101546040516001600160e01b031960e085901b1681526001600160a01b03909216600483015260248201526044016020604051808303816000875af11580156109af573d6000803e3d6000fd5b505050506040513d601f19601f820116820180604052508101906109d39190610f6e565b50600254600380546001600160a01b0390921691631b2a61b7913391869081106109ff576109ff610e0f565b90600052602060002090600c0201600401600a6040518463ffffffff1660e01b8152600401610a3093929190610f8b565b6020604051808303816000875af1158015610a4f573d6000803e3d6000fd5b505050506040513d601f19601f820116820180604052508101906104ab9190610e46565b919050565b828054828255906000526020600020908101928215610acd579160200282015b82811115610acd57825182546001600160a01b0319166001600160a01b03909116178255602090920191600190910190610a98565b50610ad9929150610add565b5090565b5b80821115610ad95760008155600101610ade565b600060208284031215610b0457600080fd5b5035919050565b6000815180845260005b81811015610b3157602081850181015186830182015201610b15565b506000602082860101526020601f19601f83011685010191505092915050565b8b81526001600160a01b038b16602082015261016060408201819052600090610b7c8382018d610b0b565b90508281036060840152610b90818c610b0b565b90508281036080840152610ba4818b610b0b565b60a0840199909952505060c081019590955260e085019390935261010084019190915261012083015263ffffffff166101409091015295945050505050565b602081526000610bf66020830184610b0b565b9392505050565b8015158114610c0b57600080fd5b50565b60008060408385031215610c2157600080fd5b823591506020830135610c3381610bfd565b809150509250929050565b634e487b7160e01b600052604160045260246000fd5b600082601f830112610c6557600080fd5b813567ffffffffffffffff80821115610c8057610c80610c3e565b604051601f8301601f19908116603f01168101908282118183101715610ca857610ca8610c3e565b81604052838152866020858801011115610cc157600080fd5b836020870160208301376000602085830101528094505050505092915050565b803563ffffffff81168114610a7357600080fd5b600080600080600080600060c0888a031215610d1057600080fd5b873567ffffffffffffffff80821115610d2857600080fd5b610d348b838c01610c54565b985060208a0135915080821115610d4a57600080fd5b818a0191508a601f830112610d5e57600080fd5b813581811115610d6d57600080fd5b8b6020828501011115610d7f57600080fd5b6020830198508097505060408a0135915080821115610d9d57600080fd5b50610daa8a828b01610c54565b9450506060880135925060808801359150610dc760a08901610ce1565b905092959891949750929550565b600181811c90821680610de957607f821691505b602082108103610e0957634e487b7160e01b600052602260045260246000fd5b50919050565b634e487b7160e01b600052603260045260246000fd5b808201808211156104ab57634e487b7160e01b600052601160045260246000fd5b600060208284031215610e5857600080fd5b5051919050565b601f821115610ea957600081815260208120601f850160051c81016020861015610e865750805b601f850160051c820191505b81811015610ea557828155600101610e92565b5050505b505050565b815167ffffffffffffffff811115610ec857610ec8610c3e565b610edc81610ed68454610dd5565b84610e5f565b602080601f831160018114610f115760008415610ef95750858301515b600019600386901b1c1916600185901b178555610ea5565b600085815260208120601f198616915b82811015610f4057888601518255948401946001909101908401610f21565b5085821015610f5e5787850151600019600388901b60f8161c191681555b5050505050600190811b01905550565b600060208284031215610f8057600080fd5b8151610bf681610bfd565b60018060a01b03841681526000602060608184015260008554610fad81610dd5565b8060608701526080600180841660008114610fcf5760018114610fe957611017565b60ff1985168984015283151560051b890183019550611017565b8a6000528660002060005b8581101561100f5781548b8201860152908301908801610ff4565b8a0184019650505b505050506bffffffffffffffffffffffff861660408601525091506110399050565b94935050505056fea264697066735822122037657bd9771b62af9f5f15ff82649f245c175401e36a3be97baf93cae5e4ebf364736f6c63430008140033",
    "linkReferences": {},
    "deployedLinkReferences": {}
}