{
  "_format": "hh-sol-artifact-1",
  "contractName": "DAOFactory",
  "sourceName": "contracts/DAOFactory.sol",
  "abi": [
    {
      "inputs": [
        {
          "internalType": "address",
          "name": "_nft_address",
          "type": "address"
        }
      ],
      "stateMutability": "nonpayable",
      "type": "constructor"
    },
    {
      "anonymous": false,
      "inputs": [
        {
          "indexed": false,
          "internalType": "address",
          "name": "daoAddress",
          "type": "address"
        },
        {
          "indexed": false,
          "internalType": "address",
          "name": "tokenAddress",
          "type": "address"
        }
      ],
      "name": "DAOCreated",
      "type": "event"
    },
    {
      "inputs": [
        {
          "internalType": "string",
          "name": "community_name",
          "type": "string"
        },
        {
          "internalType": "string",
          "name": "tokenName",
          "type": "string"
        },
        {
          "internalType": "string",
          "name": "tokenSymbol",
          "type": "string"
        }
      ],
      "name": "createDAO",
      "outputs": [
        {
          "internalType": "address",
          "name": "",
          "type": "address"
        }
      ],
      "stateMutability": "nonpayable",
      "type": "function"
    },
    {
      "inputs": [
        {
          "internalType": "address",
          "name": "",
          "type": "address"
        }
      ],
      "name": "daoToToken",
      "outputs": [
        {
          "internalType": "contract IERC20",
          "name": "",
          "type": "address"
        }
      ],
      "stateMutability": "view",
      "type": "function"
    },
    {
      "inputs": [],
      "name": "getAllCommunityAddress",
      "outputs": [
        {
          "internalType": "address[]",
          "name": "",
          "type": "address[]"
        }
      ],
      "stateMutability": "view",
      "type": "function"
    },
    {
      "inputs": [],
      "name": "getAllCommunityNames",
      "outputs": [
        {
          "internalType": "string[]",
          "name": "",
          "type": "string[]"
        }
      ],
      "stateMutability": "view",
      "type": "function"
    },
    {
      "inputs": [],
      "name": "getAllTokenList",
      "outputs": [
        {
          "internalType": "address[]",
          "name": "",
          "type": "address[]"
        }
      ],
      "stateMutability": "view",
      "type": "function"
    }
  ],
  "bytecode": "0x608060405234801561001057600080fd5b5060405161389238038061389283398101604081905261002f91610054565b600080546001600160a01b0319166001600160a01b0392909216919091179055610084565b60006020828403121561006657600080fd5b81516001600160a01b038116811461007d57600080fd5b9392505050565b6137ff806100936000396000f3fe60806040523480156200001157600080fd5b50600436106200005e5760003560e01c80631766bf3e14620000635780633279407414620000ac578063767de83b14620000c55780638272e1d414620000cf578063cfb83a8d14620000e8575b600080fd5b6200008f620000743660046200047b565b6001602052600090815260409020546001600160a01b031681565b6040516001600160a01b0390911681526020015b60405180910390f35b620000b6620000ff565b604051620000a39190620004ad565b620000b662000163565b620000d9620001c5565b604051620000a3919062000544565b6200008f620000f936600462000655565b620002a8565b606060048054806020026020016040519081016040528092919081815260200182805480156200015957602002820191906000526020600020905b81546001600160a01b031681526001909101906020018083116200013a575b5050505050905090565b6060600380548060200260200160405190810160405280929190818152602001828054801562000159576020028201919060005260206000209081546001600160a01b031681526001909101906020018083116200013a575050505050905090565b60606002805480602002602001604051908101604052809291908181526020016000905b828210156200029f5783829060005260206000200180546200020b90620006e7565b80601f01602080910402602001604051908101604052809291908181526020018280546200023990620006e7565b80156200028a5780601f106200025e576101008083540402835291602001916200028a565b820191906000526020600020905b8154815290600101906020018083116200026c57829003601f168201915b505050505081526020019060010190620001e9565b50505050905090565b600080620f42408484604051620002bf906200045f565b620002cd9392919062000723565b604051809103906000f080158015620002ea573d6000803e3d6000fd5b5090506000858260008054906101000a90046001600160a01b031660405162000313906200046d565b62000321939291906200075c565b604051809103906000f0801580156200033e573d6000803e3d6000fd5b50600280546001810182556000919091529091507f405787fa12a823e0f2b7631cc41b3ba8828b3321ca811111fa75cd3aa3bb5ace01620003808782620007e4565b506003805460018082019092557fc2575a0e9e593c00f959f8c92f12db2869c3395a3b0502d05e2516446f71f85b0180546001600160a01b038481166001600160a01b03199283168117909355600480548086019091557f8a35acfbc15ff81a39ae7d344fd709f28e8600b4aa8c65c6b64bfe7fe36bd19b0180549187169183168217905560008381526020948552604090819020805490931682179092558151928352928201929092527fc5d7346247c6d2ba52de925ca697bf6c93e96e0b51e41bb21a27276915d8a180910160405180910390a195945050505050565b611b9080620008b283390190565b611388806200244283390190565b6000602082840312156200048e57600080fd5b81356001600160a01b0381168114620004a657600080fd5b9392505050565b6020808252825182820181905260009190848201906040850190845b81811015620004f05783516001600160a01b031683529284019291840191600101620004c9565b50909695505050505050565b6000815180845260005b81811015620005245760208185018101518683018201520162000506565b506000602082860101526020601f19601f83011685010191505092915050565b6000602080830181845280855180835260408601915060408160051b870101925083870160005b828110156200059d57603f198886030184526200058a858351620004fc565b945092850192908501906001016200056b565b5092979650505050505050565b634e487b7160e01b600052604160045260246000fd5b600082601f830112620005d257600080fd5b813567ffffffffffffffff80821115620005f057620005f0620005aa565b604051601f8301601f19908116603f011681019082821181831017156200061b576200061b620005aa565b816040528381528660208588010111156200063557600080fd5b836020870160208301376000602085830101528094505050505092915050565b6000806000606084860312156200066b57600080fd5b833567ffffffffffffffff808211156200068457600080fd5b6200069287838801620005c0565b94506020860135915080821115620006a957600080fd5b620006b787838801620005c0565b93506040860135915080821115620006ce57600080fd5b50620006dd86828701620005c0565b9150509250925092565b600181811c90821680620006fc57607f821691505b6020821081036200071d57634e487b7160e01b600052602260045260246000fd5b50919050565b8381526060602082015260006200073e6060830185620004fc565b8281036040840152620007528185620004fc565b9695505050505050565b606081526000620007716060830186620004fc565b6001600160a01b0394851660208401529290931660409091015292915050565b601f821115620007df57600081815260208120601f850160051c81016020861015620007ba5750805b601f850160051c820191505b81811015620007db57828155600101620007c6565b5050505b505050565b815167ffffffffffffffff811115620008015762000801620005aa565b6200081981620008128454620006e7565b8462000791565b602080601f831160018114620008515760008415620008385750858301515b600019600386901b1c1916600185901b178555620007db565b600085815260208120601f198616915b82811015620008825788860151825594840194600190910190840162000861565b5085821015620008a15787850151600019600388901b60f8161c191681555b5050505050600190811b0190555056fe6101606040523480156200001257600080fd5b5060405162001b9038038062001b90833981016040819052620000359162000502565b6040805180820190915260018152603160f81b602082015282908190338285600362000062838262000604565b50600462000071828262000604565b50506005805460ff19169055506001600160a01b038116620000ae57604051631e4fbdf760e01b8152600060048201526024015b60405180910390fd5b620000b9816200019e565b50620000c7826006620001f8565b61012052620000d8816007620001f8565b61014052815160208084019190912060e052815190820120610100524660a0526200016660e05161010051604080517f8b73c3c69bb8fe3d512ecc4cf759cc79239f7b179b0ffacaa9a75d522b39400f60208201529081019290925260608201524660808201523060a082015260009060c00160405160208183030381529060405280519060200120905090565b60805250503060c052506200019533620001836012600a620007e3565b6200018f9086620007fb565b62000231565b50505062000885565b600580546001600160a01b03838116610100818102610100600160a81b031985161790945560405193909204169182907f8be0079c531659141344cd1fd0a4f28419497f9722a3daafe3b4186f6b6457e090600090a35050565b6000602083511015620002185762000210836200026f565b90506200022b565b8162000225848262000604565b5060ff90505b92915050565b6001600160a01b0382166200025d5760405163ec442f0560e01b815260006004820152602401620000a5565b6200026b60008383620002b2565b5050565b600080829050601f815111156200029d578260405163305a27a960e01b8152600401620000a5919062000815565b8051620002aa826200084a565b179392505050565b620002bf838383620002c4565b505050565b620002ce620002db565b620002bf83838362000302565b60055460ff1615620003005760405163d93c066560e01b815260040160405180910390fd5b565b6001600160a01b038316620003315780600260008282546200032591906200086f565b90915550620003a59050565b6001600160a01b03831660009081526020819052604090205481811015620003865760405163391434e360e21b81526001600160a01b03851660048201526024810182905260448101839052606401620000a5565b6001600160a01b03841660009081526020819052604090209082900390555b6001600160a01b038216620003c357600280548290039055620003e2565b6001600160a01b03821660009081526020819052604090208054820190555b816001600160a01b0316836001600160a01b03167fddf252ad1be2c89b69c2b068fc378daa952ba7f163c4a11628f55a4df523b3ef836040516200042891815260200190565b60405180910390a3505050565b634e487b7160e01b600052604160045260246000fd5b60005b83811015620004685781810151838201526020016200044e565b50506000910152565b600082601f8301126200048357600080fd5b81516001600160401b0380821115620004a057620004a062000435565b604051601f8301601f19908116603f01168101908282118183101715620004cb57620004cb62000435565b81604052838152866020858801011115620004e557600080fd5b620004f88460208301602089016200044b565b9695505050505050565b6000806000606084860312156200051857600080fd5b835160208501519093506001600160401b03808211156200053857600080fd5b620005468783880162000471565b935060408601519150808211156200055d57600080fd5b506200056c8682870162000471565b9150509250925092565b600181811c908216806200058b57607f821691505b602082108103620005ac57634e487b7160e01b600052602260045260246000fd5b50919050565b601f821115620002bf57600081815260208120601f850160051c81016020861015620005db5750805b601f850160051c820191505b81811015620005fc57828155600101620005e7565b505050505050565b81516001600160401b0381111562000620576200062062000435565b620006388162000631845462000576565b84620005b2565b602080601f831160018114620006705760008415620006575750858301515b600019600386901b1c1916600185901b178555620005fc565b600085815260208120601f198616915b82811015620006a15788860151825594840194600190910190840162000680565b5085821015620006c05787850151600019600388901b60f8161c191681555b5050505050600190811b01905550565b634e487b7160e01b600052601160045260246000fd5b600181815b80851115620007275781600019048211156200070b576200070b620006d0565b808516156200071957918102915b93841c9390800290620006eb565b509250929050565b60008262000740575060016200022b565b816200074f575060006200022b565b8160018114620007685760028114620007735762000793565b60019150506200022b565b60ff841115620007875762000787620006d0565b50506001821b6200022b565b5060208310610133831016604e8410600b8410161715620007b8575081810a6200022b565b620007c48383620006e6565b8060001904821115620007db57620007db620006d0565b029392505050565b6000620007f460ff8416836200072f565b9392505050565b80820281158282048414176200022b576200022b620006d0565b6020815260008251806020840152620008368160408501602087016200044b565b601f01601f19169190910160400192915050565b80516020808301519190811015620005ac5760001960209190910360031b1b16919050565b808201808211156200022b576200022b620006d0565b60805160a05160c05160e0516101005161012051610140516112b0620008e06000396000610a3801526000610a0b0152600061082b015260006108030152600061075e01526000610788015260006107b201526112b06000f3fe608060405234801561001057600080fd5b50600436106101425760003560e01c8063715018a6116100b85780638da5cb5b1161007c5780638da5cb5b1461027957806395d89b41146102a2578063a9059cbb146102aa578063d505accf146102bd578063dd62ed3e146102d0578063f2fde38b1461030957600080fd5b8063715018a61461022857806379cc6790146102305780637ecebe00146102435780638456cb591461025657806384b0196e1461025e57600080fd5b80633644e5151161010a5780633644e515146101bc5780633f4ba83a146101c457806340c10f19146101ce57806342966c68146101e15780635c975abb146101f457806370a08231146101ff57600080fd5b806306fdde0314610147578063095ea7b31461016557806318160ddd1461018857806323b872dd1461019a578063313ce567146101ad575b600080fd5b61014f61031c565b60405161015c9190610ffd565b60405180910390f35b610178610173366004611033565b6103ae565b604051901515815260200161015c565b6002545b60405190815260200161015c565b6101786101a836600461105d565b6103c8565b6040516012815260200161015c565b61018c6103ec565b6101cc6103fb565b005b6101cc6101dc366004611033565b61040d565b6101cc6101ef366004611099565b610423565b60055460ff16610178565b61018c61020d3660046110b2565b6001600160a01b031660009081526020819052604090205490565b6101cc610430565b6101cc61023e366004611033565b610442565b61018c6102513660046110b2565b610457565b6101cc610475565b610266610485565b60405161015c97969594939291906110cd565b60055461010090046001600160a01b03166040516001600160a01b03909116815260200161015c565b61014f6104cb565b6101786102b8366004611033565b6104da565b6101cc6102cb366004611163565b6104e8565b61018c6102de3660046111d6565b6001600160a01b03918216600090815260016020908152604080832093909416825291909152205490565b6101cc6103173660046110b2565b610627565b60606003805461032b90611209565b80601f016020809104026020016040519081016040528092919081815260200182805461035790611209565b80156103a45780601f10610379576101008083540402835291602001916103a4565b820191906000526020600020905b81548152906001019060200180831161038757829003601f168201915b5050505050905090565b6000336103bc818585610662565b60019150505b92915050565b6000336103d6858285610674565b6103e18585856106f2565b506001949350505050565b60006103f6610751565b905090565b61040361087c565b61040b6108af565b565b61041561087c565b61041f8282610901565b5050565b61042d3382610937565b50565b61043861087c565b61040b600061096d565b61044d823383610674565b61041f8282610937565b6001600160a01b0381166000908152600860205260408120546103c2565b61047d61087c565b61040b6109c7565b600060608060008060006060610499610a04565b6104a1610a31565b60408051600080825260208201909252600f60f81b9b939a50919850469750309650945092509050565b60606004805461032b90611209565b6000336103bc8185856106f2565b834211156105115760405163313c898160e11b8152600481018590526024015b60405180910390fd5b60007f6e71edae12b1b97f4d1f60370fef10105fa2faae0126114a169c64845d6126c988888861055e8c6001600160a01b0316600090815260086020526040902080546001810190915590565b6040805160208101969096526001600160a01b0394851690860152929091166060840152608083015260a082015260c0810186905260e00160405160208183030381529060405280519060200120905060006105b982610a5e565b905060006105c982878787610a8b565b9050896001600160a01b0316816001600160a01b031614610610576040516325c0072360e11b81526001600160a01b0380831660048301528b166024820152604401610508565b61061b8a8a8a610662565b50505050505050505050565b61062f61087c565b6001600160a01b03811661065957604051631e4fbdf760e01b815260006004820152602401610508565b61042d8161096d565b61066f8383836001610ab9565b505050565b6001600160a01b0383811660009081526001602090815260408083209386168352929052205460001981146106ec57818110156106dd57604051637dc7a0d960e11b81526001600160a01b03841660048201526024810182905260448101839052606401610508565b6106ec84848484036000610ab9565b50505050565b6001600160a01b03831661071c57604051634b637e8f60e11b815260006004820152602401610508565b6001600160a01b0382166107465760405163ec442f0560e01b815260006004820152602401610508565b61066f838383610b8e565b6000306001600160a01b037f0000000000000000000000000000000000000000000000000000000000000000161480156107aa57507f000000000000000000000000000000000000000000000000000000000000000046145b156107d457507f000000000000000000000000000000000000000000000000000000000000000090565b6103f6604080517f8b73c3c69bb8fe3d512ecc4cf759cc79239f7b179b0ffacaa9a75d522b39400f60208201527f0000000000000000000000000000000000000000000000000000000000000000918101919091527f000000000000000000000000000000000000000000000000000000000000000060608201524660808201523060a082015260009060c00160405160208183030381529060405280519060200120905090565b6005546001600160a01b0361010090910416331461040b5760405163118cdaa760e01b8152336004820152602401610508565b6108b7610b99565b6005805460ff191690557f5db9ee0a495bf2e6ff9c91a7834c1ba4fdd244a5e8aa4e537bd38aeae4b073aa335b6040516001600160a01b03909116815260200160405180910390a1565b6001600160a01b03821661092b5760405163ec442f0560e01b815260006004820152602401610508565b61041f60008383610b8e565b6001600160a01b03821661096157604051634b637e8f60e11b815260006004820152602401610508565b61041f82600083610b8e565b600580546001600160a01b03838116610100818102610100600160a81b031985161790945560405193909204169182907f8be0079c531659141344cd1fd0a4f28419497f9722a3daafe3b4186f6b6457e090600090a35050565b6109cf610bbc565b6005805460ff191660011790557f62e78cea01bee320cd4e420270b5ea74000d11b0c9f74754ebdbfc544b05a2586108e43390565b60606103f67f00000000000000000000000000000000000000000000000000000000000000006006610be0565b60606103f67f00000000000000000000000000000000000000000000000000000000000000006007610be0565b60006103c2610a6b610751565b8360405161190160f01b8152600281019290925260228201526042902090565b600080600080610a9d88888888610c8b565b925092509250610aad8282610d5a565b50909695505050505050565b6001600160a01b038416610ae35760405163e602df0560e01b815260006004820152602401610508565b6001600160a01b038316610b0d57604051634a1406b160e11b815260006004820152602401610508565b6001600160a01b03808516600090815260016020908152604080832093871683529290522082905580156106ec57826001600160a01b0316846001600160a01b03167f8c5be1e5ebec7d5bd14f71427d1e84f3dd0314c0f7b2291e5b200ac8c7c3b92584604051610b8091815260200190565b60405180910390a350505050565b61066f838383610e13565b60055460ff1661040b57604051638dfc202b60e01b815260040160405180910390fd5b60055460ff161561040b5760405163d93c066560e01b815260040160405180910390fd5b606060ff8314610bfa57610bf383610e26565b90506103c2565b818054610c0690611209565b80601f0160208091040260200160405190810160405280929190818152602001828054610c3290611209565b8015610c7f5780601f10610c5457610100808354040283529160200191610c7f565b820191906000526020600020905b815481529060010190602001808311610c6257829003601f168201915b505050505090506103c2565b600080807f7fffffffffffffffffffffffffffffff5d576e7357a4501ddfe92f46681b20a0841115610cc65750600091506003905082610d50565b604080516000808252602082018084528a905260ff891692820192909252606081018790526080810186905260019060a0016020604051602081039080840390855afa158015610d1a573d6000803e3d6000fd5b5050604051601f1901519150506001600160a01b038116610d4657506000925060019150829050610d50565b9250600091508190505b9450945094915050565b6000826003811115610d6e57610d6e611243565b03610d77575050565b6001826003811115610d8b57610d8b611243565b03610da95760405163f645eedf60e01b815260040160405180910390fd5b6002826003811115610dbd57610dbd611243565b03610dde5760405163fce698f760e01b815260048101829052602401610508565b6003826003811115610df257610df2611243565b0361041f576040516335e2f38360e21b815260048101829052602401610508565b610e1b610bbc565b61066f838383610e65565b60606000610e3383610f8f565b604080516020808252818301909252919250600091906020820181803683375050509182525060208101929092525090565b6001600160a01b038316610e90578060026000828254610e859190611259565b90915550610f029050565b6001600160a01b03831660009081526020819052604090205481811015610ee35760405163391434e360e21b81526001600160a01b03851660048201526024810182905260448101839052606401610508565b6001600160a01b03841660009081526020819052604090209082900390555b6001600160a01b038216610f1e57600280548290039055610f3d565b6001600160a01b03821660009081526020819052604090208054820190555b816001600160a01b0316836001600160a01b03167fddf252ad1be2c89b69c2b068fc378daa952ba7f163c4a11628f55a4df523b3ef83604051610f8291815260200190565b60405180910390a3505050565b600060ff8216601f8111156103c257604051632cd44ac360e21b815260040160405180910390fd5b6000815180845260005b81811015610fdd57602081850181015186830182015201610fc1565b506000602082860101526020601f19601f83011685010191505092915050565b6020815260006110106020830184610fb7565b9392505050565b80356001600160a01b038116811461102e57600080fd5b919050565b6000806040838503121561104657600080fd5b61104f83611017565b946020939093013593505050565b60008060006060848603121561107257600080fd5b61107b84611017565b925061108960208501611017565b9150604084013590509250925092565b6000602082840312156110ab57600080fd5b5035919050565b6000602082840312156110c457600080fd5b61101082611017565b60ff60f81b881681526000602060e0818401526110ed60e084018a610fb7565b83810360408501526110ff818a610fb7565b606085018990526001600160a01b038816608086015260a0850187905284810360c0860152855180825283870192509083019060005b8181101561115157835183529284019291840191600101611135565b50909c9b505050505050505050505050565b600080600080600080600060e0888a03121561117e57600080fd5b61118788611017565b965061119560208901611017565b95506040880135945060608801359350608088013560ff811681146111b957600080fd5b9699959850939692959460a0840135945060c09093013592915050565b600080604083850312156111e957600080fd5b6111f283611017565b915061120060208401611017565b90509250929050565b600181811c9082168061121d57607f821691505b60208210810361123d57634e487b7160e01b600052602260045260246000fd5b50919050565b634e487b7160e01b600052602160045260246000fd5b808201808211156103c257634e487b7160e01b600052601160045260246000fdfea2646970667358221220bee50d9fd3cecd971d862d5cc28f6b9aff094b21a8c63759ef8339ac292ab94764736f6c6343000814003360806040523480156200001157600080fd5b5060405162001388380380620013888339810160408190526200003491620000ac565b600062000042848262000235565b50600280546001600160a01b039283166001600160a01b031991821617909155600180549390921692169190911790555062000301565b634e487b7160e01b600052604160045260246000fd5b80516001600160a01b0381168114620000a757600080fd5b919050565b600080600060608486031215620000c257600080fd5b83516001600160401b0380821115620000da57600080fd5b818601915086601f830112620000ef57600080fd5b81518181111562000104576200010462000079565b604051601f8201601f19908116603f011681019083821181831017156200012f576200012f62000079565b816040528281526020935089848487010111156200014c57600080fd5b600091505b8282101562000170578482018401518183018501529083019062000151565b60008484830101528097505050506200018b8187016200008f565b935050506200019d604085016200008f565b90509250925092565b600181811c90821680620001bb57607f821691505b602082108103620001dc57634e487b7160e01b600052602260045260246000fd5b50919050565b601f8211156200023057600081815260208120601f850160051c810160208610156200020b5750805b601f850160051c820191505b818110156200022c5782815560010162000217565b5050505b505050565b81516001600160401b0381111562000251576200025162000079565b6200026981620002628454620001a6565b84620001e2565b602080601f831160018114620002a15760008415620002885750858301515b600019600386901b1c1916600185901b1785556200022c565b600085815260208120601f198616915b82811015620002d257888601518255948401946001909101908401620002b1565b5085821015620002f15787850151600019600388901b60f8161c191681555b5050505050600190811b01905550565b61107780620003116000396000f3fe608060405234801561001057600080fd5b50600436106100935760003560e01c8063c9d27afe11610066578063c9d27afe14610137578063e09414191461014c578063f512d6a614610154578063fc0c546a14610167578063fe0d94c11461017a57600080fd5b80633828de821461009857806347ccca02146100cb5780638aa3e011146100f6578063a209540a14610116575b600080fd5b6100ab6100a6366004610af2565b61018d565b6040516100c29b9a99989796959493929190610b51565b60405180910390f35b6002546100de906001600160a01b031681565b6040516001600160a01b0390911681526020016100c2565b610109610104366004610af2565b61039f565b6040516100c29190610be3565b610129610124366004610af2565b610455565b6040519081526020016100c2565b61014a610145366004610c0e565b6104b1565b005b6101096105eb565b610129610162366004610cf5565b610679565b6001546100de906001600160a01b031681565b610129610188366004610af2565b61089c565b6003818154811061019d57600080fd5b60009182526020909120600c90910201805460018201546002830180549294506001600160a01b0390911692916101d390610dd5565b80601f01602080910402602001604051908101604052809291908181526020018280546101ff90610dd5565b801561024c5780601f106102215761010080835404028352916020019161024c565b820191906000526020600020905b81548152906001019060200180831161022f57829003601f168201915b50505050509080600301805461026190610dd5565b80601f016020809104026020016040519081016040528092919081815260200182805461028d90610dd5565b80156102da5780601f106102af576101008083540402835291602001916102da565b820191906000526020600020905b8154815290600101906020018083116102bd57829003601f168201915b5050505050908060040180546102ef90610dd5565b80601f016020809104026020016040519081016040528092919081815260200182805461031b90610dd5565b80156103685780601f1061033d57610100808354040283529160200191610368565b820191906000526020600020905b81548152906001019060200180831161034b57829003601f168201915b50505060058401546006850154600786015460088701546009880154600b9098015496979396929550909350919063ffffffff168b565b6060600382815481106103b4576103b4610e0f565b90600052602060002090600c020160020180546103d090610dd5565b80601f01602080910402602001604051908101604052809291908181526020018280546103fc90610dd5565b80156104495780601f1061041e57610100808354040283529160200191610449565b820191906000526020600020905b81548152906001019060200180831161042c57829003601f168201915b50505050509050919050565b60006003828154811061046a5761046a610e0f565b90600052602060002090600c0201600601546003838154811061048f5761048f610e0f565b90600052602060002090600c0201600501546104ab9190610e25565b92915050565b6001546040516370a0823160e01b81523360048201526000916001600160a01b0316906370a0823190602401602060405180830381865afa1580156104fa573d6000803e3d6000fd5b505050506040513d601f19601f8201168201806040525081019061051e9190610e46565b9050811561056557806003848154811061053a5761053a610e0f565b90600052602060002090600c0201600501600082825461055a9190610e25565b9091555061059f9050565b806003848154811061057957610579610e0f565b90600052602060002090600c020160060160008282546105999190610e25565b90915550505b600383815481106105b2576105b2610e0f565b60009182526020808320600a600c9093020191909101805460018101825590835291200180546001600160a01b03191633179055505050565b600080546105f890610dd5565b80601f016020809104026020016040519081016040528092919081815260200182805461062490610dd5565b80156106715780601f1061064657610100808354040283529160200191610671565b820191906000526020600020905b81548152906001019060200180831161065457829003601f168201915b505050505081565b600380546040805161018081018252828152336020808301919091528183018c90528251601f8b018290048202810182019093528983526000949260608301918c908c9081908401838280828437600092018290525093855250505060208083018b9052604080840183905260608401839052608084018b90524260a085015260c084018a90528051838152808301825260e085015263ffffffff891661010090940193909352845460018082018755958352918190208451600c9093020191825583015193810180546001600160a01b0319166001600160a01b039095169490941790935581015190919060028201906107749082610eae565b50606082015160038201906107899082610eae565b506080820151600482019061079e9082610eae565b5060a0820151600582015560c0820151600682015560e082015160078201556101008201516008820155610120820151600982015561014082015180516107ef91600a840191602090910190610a78565b506101609190910151600b909101805463ffffffff191663ffffffff9092169190911790556001546040516323b872dd60e01b8152336004820152306024820152604481018790526001600160a01b03909116906323b872dd906064016020604051808303816000875af115801561086b573d6000803e3d6000fd5b505050506040513d601f19601f8201168201806040525081019061088f9190610f6e565b5098975050505050505050565b6000600382815481106108b1576108b1610e0f565b90600052602060002090600c020160060154600383815481106108d6576108d6610e0f565b90600052602060002090600c0201600501541115610a7357600154600380546001600160a01b039092169163a9059cbb91908590811061091857610918610e0f565b90600052602060002090600c020160010160009054906101000a90046001600160a01b03166003858154811061095057610950610e0f565b600091825260209091206007600c9092020101546040516001600160e01b031960e085901b1681526001600160a01b03909216600483015260248201526044016020604051808303816000875af11580156109af573d6000803e3d6000fd5b505050506040513d601f19601f820116820180604052508101906109d39190610f6e565b50600254600380546001600160a01b0390921691631b2a61b7913391869081106109ff576109ff610e0f565b90600052602060002090600c0201600401600a6040518463ffffffff1660e01b8152600401610a3093929190610f8b565b6020604051808303816000875af1158015610a4f573d6000803e3d6000fd5b505050506040513d601f19601f820116820180604052508101906104ab9190610e46565b919050565b828054828255906000526020600020908101928215610acd579160200282015b82811115610acd57825182546001600160a01b0319166001600160a01b03909116178255602090920191600190910190610a98565b50610ad9929150610add565b5090565b5b80821115610ad95760008155600101610ade565b600060208284031215610b0457600080fd5b5035919050565b6000815180845260005b81811015610b3157602081850181015186830182015201610b15565b506000602082860101526020601f19601f83011685010191505092915050565b8b81526001600160a01b038b16602082015261016060408201819052600090610b7c8382018d610b0b565b90508281036060840152610b90818c610b0b565b90508281036080840152610ba4818b610b0b565b60a0840199909952505060c081019590955260e085019390935261010084019190915261012083015263ffffffff166101409091015295945050505050565b602081526000610bf66020830184610b0b565b9392505050565b8015158114610c0b57600080fd5b50565b60008060408385031215610c2157600080fd5b823591506020830135610c3381610bfd565b809150509250929050565b634e487b7160e01b600052604160045260246000fd5b600082601f830112610c6557600080fd5b813567ffffffffffffffff80821115610c8057610c80610c3e565b604051601f8301601f19908116603f01168101908282118183101715610ca857610ca8610c3e565b81604052838152866020858801011115610cc157600080fd5b836020870160208301376000602085830101528094505050505092915050565b803563ffffffff81168114610a7357600080fd5b600080600080600080600060c0888a031215610d1057600080fd5b873567ffffffffffffffff80821115610d2857600080fd5b610d348b838c01610c54565b985060208a0135915080821115610d4a57600080fd5b818a0191508a601f830112610d5e57600080fd5b813581811115610d6d57600080fd5b8b6020828501011115610d7f57600080fd5b6020830198508097505060408a0135915080821115610d9d57600080fd5b50610daa8a828b01610c54565b9450506060880135925060808801359150610dc760a08901610ce1565b905092959891949750929550565b600181811c90821680610de957607f821691505b602082108103610e0957634e487b7160e01b600052602260045260246000fd5b50919050565b634e487b7160e01b600052603260045260246000fd5b808201808211156104ab57634e487b7160e01b600052601160045260246000fd5b600060208284031215610e5857600080fd5b5051919050565b601f821115610ea957600081815260208120601f850160051c81016020861015610e865750805b601f850160051c820191505b81811015610ea557828155600101610e92565b5050505b505050565b815167ffffffffffffffff811115610ec857610ec8610c3e565b610edc81610ed68454610dd5565b84610e5f565b602080601f831160018114610f115760008415610ef95750858301515b600019600386901b1c1916600185901b178555610ea5565b600085815260208120601f198616915b82811015610f4057888601518255948401946001909101908401610f21565b5085821015610f5e5787850151600019600388901b60f8161c191681555b5050505050600190811b01905550565b600060208284031215610f8057600080fd5b8151610bf681610bfd565b60018060a01b03841681526000602060608184015260008554610fad81610dd5565b8060608701526080600180841660008114610fcf5760018114610fe957611017565b60ff1985168984015283151560051b890183019550611017565b8a6000528660002060005b8581101561100f5781548b8201860152908301908801610ff4565b8a0184019650505b505050506bffffffffffffffffffffffff861660408601525091506110399050565b94935050505056fea264697066735822122037657bd9771b62af9f5f15ff82649f245c175401e36a3be97baf93cae5e4ebf364736f6c63430008140033a2646970667358221220027ae55f928c9de6f6947c4fdf62060f0915829dc00c25cf4be3943053564e4764736f6c63430008140033",
  "linkReferences": {},
  "deployedLinkReferences": {}
}