{
    "_format": "hh-sol-artifact-1",
    "contractName": "Greeter",
    "sourceName": "contracts/Greeter.sol",
    "abi": [
        {
            "inputs": [
                {
                    "internalType": "string",
                    "name": "_greeting",
                    "type": "string"
                }
            ],
            "stateMutability": "nonpayable",
            "type": "constructor"
        },
        {
            "inputs": [],
            "name": "greet",
            "outputs": [
                {
                    "internalType": "string",
                    "name": "",
                    "type": "string"
                }
            ],
            "stateMutability": "view",
            "type": "function"
        },
        {
            "inputs": [],
            "name": "payMe",
            "outputs": [],
            "stateMutability": "payable",
            "type": "function"
        },
        {
            "inputs": [
                {
                    "internalType": "string",
                    "name": "_greeting",
                    "type": "string"
                }
            ],
            "name": "setGreeting",
            "outputs": [],
            "stateMutability": "nonpayable",
            "type": "function"
        }
    ],
    "bytecode": "0x60806040523480156200001157600080fd5b5060405162000a7c38038062000a7c833981016040819052620000349162000141565b6200006460405180606001604052806022815260200162000a5a60229139826200007a60201b620002581760201c565b600062000072828262000288565b5050620003b4565b620000c782826040516024016200009392919062000382565b60408051601f198184030181529190526020810180516001600160e01b03908116634b5c427760e01b17909152620000cb16565b5050565b620000e181620000e460201b6200029d1760201c565b50565b60006a636f6e736f6c652e6c6f679050600080835160208501845afa505050565b634e487b7160e01b600052604160045260246000fd5b60005b83811015620001385781810151838201526020016200011e565b50506000910152565b6000602082840312156200015457600080fd5b81516001600160401b03808211156200016c57600080fd5b818401915084601f8301126200018157600080fd5b81518181111562000196576200019662000105565b604051601f8201601f19908116603f01168101908382118183101715620001c157620001c162000105565b81604052828152876020848701011115620001db57600080fd5b620001ee8360208301602088016200011b565b979650505050505050565b600181811c908216806200020e57607f821691505b6020821081036200022f57634e487b7160e01b600052602260045260246000fd5b50919050565b601f8211156200028357600081815260208120601f850160051c810160208610156200025e5750805b601f850160051c820191505b818110156200027f578281556001016200026a565b5050505b505050565b81516001600160401b03811115620002a457620002a462000105565b620002bc81620002b58454620001f9565b8462000235565b602080601f831160018114620002f45760008415620002db5750858301515b600019600386901b1c1916600185901b1785556200027f565b600085815260208120601f198616915b82811015620003255788860151825594840194600190910190840162000304565b5085821015620003445787850151600019600388901b60f8161c191681555b5050505050600190811b01905550565b600081518084526200036e8160208601602086016200011b565b601f01601f19169290920160200192915050565b60408152600062000397604083018562000354565b8281036020840152620003ab818562000354565b95945050505050565b61069680620003c46000396000f3fe6080604052600436106100345760003560e01c8063a413686214610039578063cfae32171461005b578063d997ccb314610086575b600080fd5b34801561004557600080fd5b50610059610054366004610336565b61008e565b005b34801561006757600080fd5b5061007061014b565b60405161007d919061042d565b60405180910390f35b6100596101dd565b61013b60405180606001604052806023815260200161063e60239139600080546100b790610447565b80601f01602080910402602001604051908101604052809291908181526020018280546100e390610447565b80156101305780601f1061010557610100808354040283529160200191610130565b820191906000526020600020905b81548152906001019060200180831161011357829003601f168201915b5050505050836102be565b600061014782826104cf565b5050565b60606000805461015a90610447565b80601f016020809104026020016040519081016040528092919081815260200182805461018690610447565b80156101d35780601f106101a8576101008083540402835291602001916101d3565b820191906000526020600020905b8154815290600101906020018083116101b657829003601f168201915b5050505050905090565b67016345785d8a0000341161022b5760405162461bcd60e51b815260206004820152601060248201526f2a3434b99034b99030b71032b93937b960811b604482015260640160405180910390fd5b3360009081526001602052604090205461024690349061058f565b33600090815260016020526040902055565b610147828260405160240161026e9291906105b6565b60408051601f198184030181529190526020810180516001600160e01b0316634b5c427760e01b17905261030a565b60006a636f6e736f6c652e6c6f679050600080835160208501845afa505050565b6103058383836040516024016102d6939291906105e4565b60408051601f198184030181529190526020810180516001600160e01b0316632ced7cef60e01b17905261030a565b505050565b6103138161029d565b50565b61031e610627565b565b634e487b7160e01b600052604160045260246000fd5b60006020828403121561034857600080fd5b813567ffffffffffffffff8082111561036057600080fd5b818401915084601f83011261037457600080fd5b81358181111561038657610386610320565b604051601f8201601f19908116603f011681019083821181831017156103ae576103ae610320565b816040528281528760208487010111156103c757600080fd5b826020860160208301376000928101602001929092525095945050505050565b6000815180845260005b8181101561040d576020818501810151868301820152016103f1565b506000602082860101526020601f19601f83011685010191505092915050565b60208152600061044060208301846103e7565b9392505050565b600181811c9082168061045b57607f821691505b60208210810361047b57634e487b7160e01b600052602260045260246000fd5b50919050565b601f82111561030557600081815260208120601f850160051c810160208610156104a85750805b601f850160051c820191505b818110156104c7578281556001016104b4565b505050505050565b815167ffffffffffffffff8111156104e9576104e9610320565b6104fd816104f78454610447565b84610481565b602080601f831160018114610532576000841561051a5750858301515b600019600386901b1c1916600185901b1785556104c7565b600085815260208120601f198616915b8281101561056157888601518255948401946001909101908401610542565b508582101561057f5787850151600019600388901b60f8161c191681555b5050505050600190811b01905550565b808201808211156105b057634e487b7160e01b600052601160045260246000fd5b92915050565b6040815260006105c960408301856103e7565b82810360208401526105db81856103e7565b95945050505050565b6060815260006105f760608301866103e7565b828103602084015261060981866103e7565b9050828103604084015261061d81856103e7565b9695505050505050565b634e487b7160e01b600052605160045260246000fdfe4368616e67696e67206772656574696e672066726f6d202725732720746f2027257327a26469706673582212202a9b820ce269ba37267e7f8b3ca7a971a91003dba1573f1eb3332d907310ea1764736f6c634300081100334465706c6f79696e67206120477265657465722077697468206772656574696e673a",
    "linkReferences": {},
    "deployedLinkReferences": {}
}