{
    "_format": "hh-sol-artifact-1",
    "contractName": "ArtNFT",
    "sourceName": "contracts/ArtNFT.sol",
    "abi": [
        {
            "inputs": [
                {
                    "internalType": "address",
                    "name": "initialOwner",
                    "type": "address"
                }
            ],
            "stateMutability": "nonpayable",
            "type": "constructor"
        },
        {
            "inputs": [
                {
                    "internalType": "uint256",
                    "name": "numerator",
                    "type": "uint256"
                },
                {
                    "internalType": "uint256",
                    "name": "denominator",
                    "type": "uint256"
                }
            ],
            "name": "ERC2981InvalidDefaultRoyalty",
            "type": "error"
        },
        {
            "inputs": [
                {
                    "internalType": "address",
                    "name": "receiver",
                    "type": "address"
                }
            ],
            "name": "ERC2981InvalidDefaultRoyaltyReceiver",
            "type": "error"
        },
        {
            "inputs": [
                {
                    "internalType": "uint256",
                    "name": "tokenId",
                    "type": "uint256"
                },
                {
                    "internalType": "uint256",
                    "name": "numerator",
                    "type": "uint256"
                },
                {
                    "internalType": "uint256",
                    "name": "denominator",
                    "type": "uint256"
                }
            ],
            "name": "ERC2981InvalidTokenRoyalty",
            "type": "error"
        },
        {
            "inputs": [
                {
                    "internalType": "uint256",
                    "name": "tokenId",
                    "type": "uint256"
                },
                {
                    "internalType": "address",
                    "name": "receiver",
                    "type": "address"
                }
            ],
            "name": "ERC2981InvalidTokenRoyaltyReceiver",
            "type": "error"
        },
        {
            "inputs": [],
            "name": "ERC721EnumerableForbiddenBatchMint",
            "type": "error"
        },
        {
            "inputs": [
                {
                    "internalType": "address",
                    "name": "sender",
                    "type": "address"
                },
                {
                    "internalType": "uint256",
                    "name": "tokenId",
                    "type": "uint256"
                },
                {
                    "internalType": "address",
                    "name": "owner",
                    "type": "address"
                }
            ],
            "name": "ERC721IncorrectOwner",
            "type": "error"
        },
        {
            "inputs": [
                {
                    "internalType": "address",
                    "name": "operator",
                    "type": "address"
                },
                {
                    "internalType": "uint256",
                    "name": "tokenId",
                    "type": "uint256"
                }
            ],
            "name": "ERC721InsufficientApproval",
            "type": "error"
        },
        {
            "inputs": [
                {
                    "internalType": "address",
                    "name": "approver",
                    "type": "address"
                }
            ],
            "name": "ERC721InvalidApprover",
            "type": "error"
        },
        {
            "inputs": [
                {
                    "internalType": "address",
                    "name": "operator",
                    "type": "address"
                }
            ],
            "name": "ERC721InvalidOperator",
            "type": "error"
        },
        {
            "inputs": [
                {
                    "internalType": "address",
                    "name": "owner",
                    "type": "address"
                }
            ],
            "name": "ERC721InvalidOwner",
            "type": "error"
        },
        {
            "inputs": [
                {
                    "internalType": "address",
                    "name": "receiver",
                    "type": "address"
                }
            ],
            "name": "ERC721InvalidReceiver",
            "type": "error"
        },
        {
            "inputs": [
                {
                    "internalType": "address",
                    "name": "sender",
                    "type": "address"
                }
            ],
            "name": "ERC721InvalidSender",
            "type": "error"
        },
        {
            "inputs": [
                {
                    "internalType": "uint256",
                    "name": "tokenId",
                    "type": "uint256"
                }
            ],
            "name": "ERC721NonexistentToken",
            "type": "error"
        },
        {
            "inputs": [
                {
                    "internalType": "address",
                    "name": "owner",
                    "type": "address"
                },
                {
                    "internalType": "uint256",
                    "name": "index",
                    "type": "uint256"
                }
            ],
            "name": "ERC721OutOfBoundsIndex",
            "type": "error"
        },
        {
            "inputs": [
                {
                    "internalType": "address",
                    "name": "owner",
                    "type": "address"
                }
            ],
            "name": "OwnableInvalidOwner",
            "type": "error"
        },
        {
            "inputs": [
                {
                    "internalType": "address",
                    "name": "account",
                    "type": "address"
                }
            ],
            "name": "OwnableUnauthorizedAccount",
            "type": "error"
        },
        {
            "anonymous": false,
            "inputs": [
                {
                    "indexed": true,
                    "internalType": "address",
                    "name": "owner",
                    "type": "address"
                },
                {
                    "indexed": true,
                    "internalType": "address",
                    "name": "approved",
                    "type": "address"
                },
                {
                    "indexed": true,
                    "internalType": "uint256",
                    "name": "tokenId",
                    "type": "uint256"
                }
            ],
            "name": "Approval",
            "type": "event"
        },
        {
            "anonymous": false,
            "inputs": [
                {
                    "indexed": true,
                    "internalType": "address",
                    "name": "owner",
                    "type": "address"
                },
                {
                    "indexed": true,
                    "internalType": "address",
                    "name": "operator",
                    "type": "address"
                },
                {
                    "indexed": false,
                    "internalType": "bool",
                    "name": "approved",
                    "type": "bool"
                }
            ],
            "name": "ApprovalForAll",
            "type": "event"
        },
        {
            "anonymous": false,
            "inputs": [
                {
                    "indexed": false,
                    "internalType": "uint256",
                    "name": "_fromTokenId",
                    "type": "uint256"
                },
                {
                    "indexed": false,
                    "internalType": "uint256",
                    "name": "_toTokenId",
                    "type": "uint256"
                }
            ],
            "name": "BatchMetadataUpdate",
            "type": "event"
        },
        {
            "anonymous": false,
            "inputs": [
                {
                    "indexed": false,
                    "internalType": "uint256",
                    "name": "_tokenId",
                    "type": "uint256"
                }
            ],
            "name": "MetadataUpdate",
            "type": "event"
        },
        {
            "anonymous": false,
            "inputs": [
                {
                    "indexed": true,
                    "internalType": "address",
                    "name": "previousOwner",
                    "type": "address"
                },
                {
                    "indexed": true,
                    "internalType": "address",
                    "name": "newOwner",
                    "type": "address"
                }
            ],
            "name": "OwnershipTransferred",
            "type": "event"
        },
        {
            "anonymous": false,
            "inputs": [
                {
                    "indexed": true,
                    "internalType": "address",
                    "name": "from",
                    "type": "address"
                },
                {
                    "indexed": true,
                    "internalType": "address",
                    "name": "to",
                    "type": "address"
                },
                {
                    "indexed": true,
                    "internalType": "uint256",
                    "name": "tokenId",
                    "type": "uint256"
                }
            ],
            "name": "Transfer",
            "type": "event"
        },
        {
            "inputs": [
                {
                    "internalType": "address",
                    "name": "to",
                    "type": "address"
                },
                {
                    "internalType": "uint256",
                    "name": "tokenId",
                    "type": "uint256"
                }
            ],
            "name": "approve",
            "outputs": [],
            "stateMutability": "nonpayable",
            "type": "function"
        },
        {
            "inputs": [
                {
                    "internalType": "address",
                    "name": "owner",
                    "type": "address"
                }
            ],
            "name": "balanceOf",
            "outputs": [
                {
                    "internalType": "uint256",
                    "name": "",
                    "type": "uint256"
                }
            ],
            "stateMutability": "view",
            "type": "function"
        },
        {
            "inputs": [
                {
                    "internalType": "uint256",
                    "name": "tokenId",
                    "type": "uint256"
                }
            ],
            "name": "getApproved",
            "outputs": [
                {
                    "internalType": "address",
                    "name": "",
                    "type": "address"
                }
            ],
            "stateMutability": "view",
            "type": "function"
        },
        {
            "inputs": [
                {
                    "internalType": "address",
                    "name": "owner",
                    "type": "address"
                },
                {
                    "internalType": "address",
                    "name": "operator",
                    "type": "address"
                }
            ],
            "name": "isApprovedForAll",
            "outputs": [
                {
                    "internalType": "bool",
                    "name": "",
                    "type": "bool"
                }
            ],
            "stateMutability": "view",
            "type": "function"
        },
        {
            "inputs": [],
            "name": "name",
            "outputs": [
                {
                    "internalType": "string",
                    "name": "",
                    "type": "string"
                }
            ],
            "stateMutability": "view",
            "type": "function"
        },
        {
            "inputs": [],
            "name": "owner",
            "outputs": [
                {
                    "internalType": "address",
                    "name": "",
                    "type": "address"
                }
            ],
            "stateMutability": "view",
            "type": "function"
        },
        {
            "inputs": [
                {
                    "internalType": "uint256",
                    "name": "tokenId",
                    "type": "uint256"
                }
            ],
            "name": "ownerOf",
            "outputs": [
                {
                    "internalType": "address",
                    "name": "",
                    "type": "address"
                }
            ],
            "stateMutability": "view",
            "type": "function"
        },
        {
            "inputs": [],
            "name": "renounceOwnership",
            "outputs": [],
            "stateMutability": "nonpayable",
            "type": "function"
        },
        {
            "inputs": [
                {
                    "internalType": "uint256",
                    "name": "tokenId",
                    "type": "uint256"
                },
                {
                    "internalType": "uint256",
                    "name": "salePrice",
                    "type": "uint256"
                }
            ],
            "name": "royaltyInfo",
            "outputs": [
                {
                    "internalType": "address",
                    "name": "",
                    "type": "address"
                },
                {
                    "internalType": "uint256",
                    "name": "",
                    "type": "uint256"
                }
            ],
            "stateMutability": "view",
            "type": "function"
        },
        {
            "inputs": [
                {
                    "internalType": "address",
                    "name": "to",
                    "type": "address"
                },
                {
                    "internalType": "string",
                    "name": "uri",
                    "type": "string"
                },
                {
                    "internalType": "uint96",
                    "name": "royaltyAmount",
                    "type": "uint96"
                }
            ],
            "name": "safeMint",
            "outputs": [
                {
                    "internalType": "uint256",
                    "name": "",
                    "type": "uint256"
                }
            ],
            "stateMutability": "nonpayable",
            "type": "function"
        },
        {
            "inputs": [
                {
                    "internalType": "address",
                    "name": "from",
                    "type": "address"
                },
                {
                    "internalType": "address",
                    "name": "to",
                    "type": "address"
                },
                {
                    "internalType": "uint256",
                    "name": "tokenId",
                    "type": "uint256"
                }
            ],
            "name": "safeTransferFrom",
            "outputs": [],
            "stateMutability": "nonpayable",
            "type": "function"
        },
        {
            "inputs": [
                {
                    "internalType": "address",
                    "name": "from",
                    "type": "address"
                },
                {
                    "internalType": "address",
                    "name": "to",
                    "type": "address"
                },
                {
                    "internalType": "uint256",
                    "name": "tokenId",
                    "type": "uint256"
                },
                {
                    "internalType": "bytes",
                    "name": "data",
                    "type": "bytes"
                }
            ],
            "name": "safeTransferFrom",
            "outputs": [],
            "stateMutability": "nonpayable",
            "type": "function"
        },
        {
            "inputs": [
                {
                    "internalType": "address",
                    "name": "operator",
                    "type": "address"
                },
                {
                    "internalType": "bool",
                    "name": "approved",
                    "type": "bool"
                }
            ],
            "name": "setApprovalForAll",
            "outputs": [],
            "stateMutability": "nonpayable",
            "type": "function"
        },
        {
            "inputs": [
                {
                    "internalType": "bytes4",
                    "name": "interfaceId",
                    "type": "bytes4"
                }
            ],
            "name": "supportsInterface",
            "outputs": [
                {
                    "internalType": "bool",
                    "name": "",
                    "type": "bool"
                }
            ],
            "stateMutability": "view",
            "type": "function"
        },
        {
            "inputs": [],
            "name": "symbol",
            "outputs": [
                {
                    "internalType": "string",
                    "name": "",
                    "type": "string"
                }
            ],
            "stateMutability": "view",
            "type": "function"
        },
        {
            "inputs": [
                {
                    "internalType": "uint256",
                    "name": "index",
                    "type": "uint256"
                }
            ],
            "name": "tokenByIndex",
            "outputs": [
                {
                    "internalType": "uint256",
                    "name": "",
                    "type": "uint256"
                }
            ],
            "stateMutability": "view",
            "type": "function"
        },
        {
            "inputs": [
                {
                    "internalType": "address",
                    "name": "owner",
                    "type": "address"
                },
                {
                    "internalType": "uint256",
                    "name": "index",
                    "type": "uint256"
                }
            ],
            "name": "tokenOfOwnerByIndex",
            "outputs": [
                {
                    "internalType": "uint256",
                    "name": "",
                    "type": "uint256"
                }
            ],
            "stateMutability": "view",
            "type": "function"
        },
        {
            "inputs": [
                {
                    "internalType": "uint256",
                    "name": "tokenId",
                    "type": "uint256"
                }
            ],
            "name": "tokenURI",
            "outputs": [
                {
                    "internalType": "string",
                    "name": "",
                    "type": "string"
                }
            ],
            "stateMutability": "view",
            "type": "function"
        },
        {
            "inputs": [],
            "name": "totalSupply",
            "outputs": [
                {
                    "internalType": "uint256",
                    "name": "",
                    "type": "uint256"
                }
            ],
            "stateMutability": "view",
            "type": "function"
        },
        {
            "inputs": [
                {
                    "internalType": "address",
                    "name": "from",
                    "type": "address"
                },
                {
                    "internalType": "address",
                    "name": "to",
                    "type": "address"
                },
                {
                    "internalType": "uint256",
                    "name": "tokenId",
                    "type": "uint256"
                }
            ],
            "name": "transferFrom",
            "outputs": [],
            "stateMutability": "nonpayable",
            "type": "function"
        },
        {
            "inputs": [
                {
                    "internalType": "address",
                    "name": "newOwner",
                    "type": "address"
                }
            ],
            "name": "transferOwnership",
            "outputs": [],
            "stateMutability": "nonpayable",
            "type": "function"
        }
    ],
    "bytecode": "0x60806040523480156200001157600080fd5b5060405162001e0438038062001e048339810160408190526200003491620001dd565b8060405180604001604052806006815260200165105c9513919560d21b815250604051806040016040528060048152602001631053919560e21b8152508160029081620000829190620002b4565b506003620000918282620002b4565b5050506001600160a01b038116620000c457604051631e4fbdf760e01b8152600060048201526024015b60405180910390fd5b620000cf81620000e4565b50620000dd81600f62000136565b5062000380565b600d80546001600160a01b038381166001600160a01b0319831681179093556040519116919082907f8be0079c531659141344cd1fd0a4f28419497f9722a3daafe3b4186f6b6457e090600090a35050565b6127106001600160601b0382168110156200017757604051636f483d0960e01b81526001600160601b038316600482015260248101829052604401620000bb565b6001600160a01b038316620001a357604051635b6cc80560e11b815260006004820152602401620000bb565b50604080518082019091526001600160a01b039092168083526001600160601b039091166020909201829052600160a01b90910217600055565b600060208284031215620001f057600080fd5b81516001600160a01b03811681146200020857600080fd5b9392505050565b634e487b7160e01b600052604160045260246000fd5b600181811c908216806200023a57607f821691505b6020821081036200025b57634e487b7160e01b600052602260045260246000fd5b50919050565b601f821115620002af57600081815260208120601f850160051c810160208610156200028a5750805b601f850160051c820191505b81811015620002ab5782815560010162000296565b5050505b505050565b81516001600160401b03811115620002d057620002d06200020f565b620002e881620002e1845462000225565b8462000261565b602080601f831160018114620003205760008415620003075750858301515b600019600386901b1c1916600185901b178555620002ab565b600085815260208120601f198616915b82811015620003515788860151825594840194600190910190840162000330565b5085821015620003705787850151600019600388901b60f8161c191681555b5050505050600190811b01905550565b611a7480620003906000396000f3fe608060405234801561001057600080fd5b50600436106101375760003560e01c80634f6ccce7116100b857806395d89b411161007c57806395d89b411461029b578063a22cb465146102a3578063b88d4fde146102b6578063c87b56dd146102c9578063e985e9c5146102dc578063f2fde38b146102ef57600080fd5b80634f6ccce7146102495780636352211e1461025c57806370a082311461026f578063715018a6146102825780638da5cb5b1461028a57600080fd5b80631b2a61b7116100ff5780631b2a61b7146101cb57806323b872dd146101de5780632a55205a146101f15780632f745c591461022357806342842e0e1461023657600080fd5b806301ffc9a71461013c57806306fdde0314610164578063081812fc14610179578063095ea7b3146101a457806318160ddd146101b9575b600080fd5b61014f61014a366004611475565b610302565b60405190151581526020015b60405180910390f35b61016c610313565b60405161015b91906114e2565b61018c6101873660046114f5565b6103a5565b6040516001600160a01b03909116815260200161015b565b6101b76101b236600461152a565b6103ce565b005b600a545b60405190815260200161015b565b6101bd6101d93660046115e0565b6103dd565b6101b76101ec366004611662565b61041e565b6102046101ff36600461169e565b6104ae565b604080516001600160a01b03909316835260208301919091520161015b565b6101bd61023136600461152a565b61055a565b6101b7610244366004611662565b6105bf565b6101bd6102573660046114f5565b6105df565b61018c61026a3660046114f5565b610638565b6101bd61027d3660046116c0565b610643565b6101b761068b565b600d546001600160a01b031661018c565b61016c61069f565b6101b76102b13660046116db565b6106ae565b6101b76102c4366004611717565b6106b9565b61016c6102d73660046114f5565b6106d0565b61014f6102ea366004611793565b6106db565b6101b76102fd3660046116c0565b610709565b600061030d82610747565b92915050565b606060028054610322906117c6565b80601f016020809104026020016040519081016040528092919081815260200182805461034e906117c6565b801561039b5780601f106103705761010080835404028352916020019161039b565b820191906000526020600020905b81548152906001019060200180831161037e57829003601f168201915b5050505050905090565b60006103b082610752565b506000828152600660205260409020546001600160a01b031661030d565b6103d982823361078b565b5050565b600e8054600091829190826103f183611816565b9190505590506104018582610798565b61040b81856107b2565b610416818685610802565b949350505050565b6001600160a01b03821661044d57604051633250574960e11b8152600060048201526024015b60405180910390fd5b600061045a8383336108c4565b9050836001600160a01b0316816001600160a01b0316146104a8576040516364283d7b60e01b81526001600160a01b0380861660048301526024820184905282166044820152606401610444565b50505050565b60008281526001602090815260408083208151808301909252546001600160a01b038116808352600160a01b9091046001600160601b03169282019290925282916105235750604080518082019091526000546001600160a01b0381168252600160a01b90046001600160601b031660208201525b602081015160009061271090610542906001600160601b03168761182f565b61054c9190611846565b915196919550909350505050565b600061056583610643565b82106105965760405163295f44f760e21b81526001600160a01b038416600482015260248101839052604401610444565b506001600160a01b03919091166000908152600860209081526040808320938352929052205490565b6105da838383604051806020016040528060008152506106b9565b505050565b60006105ea600a5490565b82106106135760405163295f44f760e21b81526000600482015260248101839052604401610444565b600a828154811061062657610626611868565b90600052602060002001549050919050565b600061030d82610752565b60006001600160a01b03821661066f576040516322718ad960e21b815260006004820152602401610444565b506001600160a01b031660009081526005602052604090205490565b6106936108d1565b61069d60006108fe565b565b606060038054610322906117c6565b6103d9338383610950565b6106c484848461041e565b6104a8848484846109ef565b606061030d82610b18565b6001600160a01b03918216600090815260076020908152604080832093909416825291909152205460ff1690565b6107116108d1565b6001600160a01b03811661073b57604051631e4fbdf760e01b815260006004820152602401610444565b610744816108fe565b50565b600061030d82610c21565b6000818152600460205260408120546001600160a01b03168061030d57604051637e27328960e01b815260048101849052602401610444565b6105da8383836001610c46565b6103d9828260405180602001604052806000815250610d4c565b6000828152600c602052604090206107ca82826118cc565b506040518281527ff8e1a15aba9398e019f0b49df1a4fde98ee17ae345cb5f6b5e2c27f5033e8ce79060200160405180910390a15050565b6127106001600160601b0382168110156108485760405163dfd1fc1b60e01b8152600481018590526001600160601b038316602482015260448101829052606401610444565b6001600160a01b03831661087957604051634b4f842960e11b81526004810185905260006024820152604401610444565b506040805180820182526001600160a01b0393841681526001600160601b0392831660208083019182526000968752600190529190942093519051909116600160a01b029116179055565b6000610416848484610d63565b600d546001600160a01b0316331461069d5760405163118cdaa760e01b8152336004820152602401610444565b600d80546001600160a01b038381166001600160a01b0319831681179093556040519116919082907f8be0079c531659141344cd1fd0a4f28419497f9722a3daafe3b4186f6b6457e090600090a35050565b6001600160a01b03821661098257604051630b61174360e31b81526001600160a01b0383166004820152602401610444565b6001600160a01b03838116600081815260076020908152604080832094871680845294825291829020805460ff191686151590811790915591519182527f17307eab39ab6107e8899845ad3d59bd9653f200f220920489ca2b5937696c31910160405180910390a3505050565b6001600160a01b0383163b156104a857604051630a85bd0160e11b81526001600160a01b0384169063150b7a0290610a3190339088908790879060040161198c565b6020604051808303816000875af1925050508015610a6c575060408051601f3d908101601f19168201909252610a69918101906119c9565b60015b610ad5573d808015610a9a576040519150601f19603f3d011682016040523d82523d6000602084013e610a9f565b606091505b508051600003610acd57604051633250574960e11b81526001600160a01b0385166004820152602401610444565b805181602001fd5b6001600160e01b03198116630a85bd0160e11b14610b1157604051633250574960e11b81526001600160a01b0385166004820152602401610444565b5050505050565b6060610b2382610752565b506000828152600c602052604081208054610b3d906117c6565b80601f0160208091040260200160405190810160405280929190818152602001828054610b69906117c6565b8015610bb65780601f10610b8b57610100808354040283529160200191610bb6565b820191906000526020600020905b815481529060010190602001808311610b9957829003601f168201915b505050505090506000610bd460408051602081019091526000815290565b90508051600003610be6575092915050565b815115610c18578082604051602001610c009291906119e6565b60405160208183030381529060405292505050919050565b61041684610e30565b60006001600160e01b03198216632483248360e11b148061030d575061030d82610ea5565b8080610c5a57506001600160a01b03821615155b15610d1c576000610c6a84610752565b90506001600160a01b03831615801590610c965750826001600160a01b0316816001600160a01b031614155b8015610ca95750610ca781846106db565b155b15610cd25760405163a9fbf51f60e01b81526001600160a01b0384166004820152602401610444565b8115610d1a5783856001600160a01b0316826001600160a01b03167f8c5be1e5ebec7d5bd14f71427d1e84f3dd0314c0f7b2291e5b200ac8c7c3b92560405160405180910390a45b505b5050600090815260066020526040902080546001600160a01b0319166001600160a01b0392909216919091179055565b610d568383610eca565b6105da60008484846109ef565b600080610d71858585610f2f565b90506001600160a01b038116610dce57610dc984600a80546000838152600b60205260408120829055600182018355919091527fc65a7bb8d6351c1cf70c95a316cc6a92839c986682d98bc35f958f4883f9d2a80155565b610df1565b846001600160a01b0316816001600160a01b031614610df157610df18185611028565b6001600160a01b038516610e0d57610e08846110b9565b610416565b846001600160a01b0316816001600160a01b031614610416576104168585611168565b6060610e3b82610752565b506000610e5360408051602081019091526000815290565b90506000815111610e735760405180602001604052806000815250610e9e565b80610e7d846111b8565b604051602001610e8e9291906119e6565b6040516020818303038152906040525b9392505050565b60006001600160e01b0319821663780e9d6360e01b148061030d575061030d8261124b565b6001600160a01b038216610ef457604051633250574960e11b815260006004820152602401610444565b6000610f02838360006108c4565b90506001600160a01b038116156105da576040516339e3563760e11b815260006004820152602401610444565b6000828152600460205260408120546001600160a01b0390811690831615610f5c57610f5c81848661128b565b6001600160a01b03811615610f9a57610f79600085600080610c46565b6001600160a01b038116600090815260056020526040902080546000190190555b6001600160a01b03851615610fc9576001600160a01b0385166000908152600560205260409020805460010190555b60008481526004602052604080822080546001600160a01b0319166001600160a01b0389811691821790925591518793918516917fddf252ad1be2c89b69c2b068fc378daa952ba7f163c4a11628f55a4df523b3ef91a4949350505050565b600061103383610643565b600083815260096020526040902054909150808214611086576001600160a01b03841660009081526008602090815260408083208584528252808320548484528184208190558352600990915290208190555b5060009182526009602090815260408084208490556001600160a01b039094168352600881528383209183525290812055565b600a546000906110cb90600190611a15565b6000838152600b6020526040812054600a80549394509092849081106110f3576110f3611868565b9060005260206000200154905080600a838154811061111457611114611868565b6000918252602080832090910192909255828152600b9091526040808220849055858252812055600a80548061114c5761114c611a28565b6001900381819060005260206000200160009055905550505050565b6000600161117584610643565b61117f9190611a15565b6001600160a01b039093166000908152600860209081526040808320868452825280832085905593825260099052919091209190915550565b606060006111c5836112ef565b600101905060008167ffffffffffffffff8111156111e5576111e5611554565b6040519080825280601f01601f19166020018201604052801561120f576020820181803683370190505b5090508181016020015b600019016f181899199a1a9b1b9c1cb0b131b232b360811b600a86061a8153600a850494508461121957509392505050565b60006001600160e01b031982166380ac58cd60e01b148061127c57506001600160e01b03198216635b5e139f60e01b145b8061030d575061030d826113c7565b6112968383836113fc565b6105da576001600160a01b0383166112c457604051637e27328960e01b815260048101829052602401610444565b60405163177e802f60e01b81526001600160a01b038316600482015260248101829052604401610444565b60008072184f03e93ff9f4daa797ed6e38ed64bf6a1f0160401b831061132e5772184f03e93ff9f4daa797ed6e38ed64bf6a1f0160401b830492506040015b6d04ee2d6d415b85acef8100000000831061135a576d04ee2d6d415b85acef8100000000830492506020015b662386f26fc10000831061137857662386f26fc10000830492506010015b6305f5e1008310611390576305f5e100830492506008015b61271083106113a457612710830492506004015b606483106113b6576064830492506002015b600a831061030d5760010192915050565b60006001600160e01b0319821663152a902d60e11b148061030d57506301ffc9a760e01b6001600160e01b031983161461030d565b60006001600160a01b038316158015906104165750826001600160a01b0316846001600160a01b03161480611436575061143684846106db565b806104165750506000908152600660205260409020546001600160a01b03908116911614919050565b6001600160e01b03198116811461074457600080fd5b60006020828403121561148757600080fd5b8135610e9e8161145f565b60005b838110156114ad578181015183820152602001611495565b50506000910152565b600081518084526114ce816020860160208601611492565b601f01601f19169290920160200192915050565b602081526000610e9e60208301846114b6565b60006020828403121561150757600080fd5b5035919050565b80356001600160a01b038116811461152557600080fd5b919050565b6000806040838503121561153d57600080fd5b6115468361150e565b946020939093013593505050565b634e487b7160e01b600052604160045260246000fd5b600067ffffffffffffffff8084111561158557611585611554565b604051601f8501601f19908116603f011681019082821181831017156115ad576115ad611554565b816040528093508581528686860111156115c657600080fd5b858560208301376000602087830101525050509392505050565b6000806000606084860312156115f557600080fd5b6115fe8461150e565b9250602084013567ffffffffffffffff81111561161a57600080fd5b8401601f8101861361162b57600080fd5b61163a8682356020840161156a565b92505060408401356001600160601b038116811461165757600080fd5b809150509250925092565b60008060006060848603121561167757600080fd5b6116808461150e565b925061168e6020850161150e565b9150604084013590509250925092565b600080604083850312156116b157600080fd5b50508035926020909101359150565b6000602082840312156116d257600080fd5b610e9e8261150e565b600080604083850312156116ee57600080fd5b6116f78361150e565b91506020830135801515811461170c57600080fd5b809150509250929050565b6000806000806080858703121561172d57600080fd5b6117368561150e565b93506117446020860161150e565b925060408501359150606085013567ffffffffffffffff81111561176757600080fd5b8501601f8101871361177857600080fd5b6117878782356020840161156a565b91505092959194509250565b600080604083850312156117a657600080fd5b6117af8361150e565b91506117bd6020840161150e565b90509250929050565b600181811c908216806117da57607f821691505b6020821081036117fa57634e487b7160e01b600052602260045260246000fd5b50919050565b634e487b7160e01b600052601160045260246000fd5b60006001820161182857611828611800565b5060010190565b808202811582820484141761030d5761030d611800565b60008261186357634e487b7160e01b600052601260045260246000fd5b500490565b634e487b7160e01b600052603260045260246000fd5b601f8211156105da57600081815260208120601f850160051c810160208610156118a55750805b601f850160051c820191505b818110156118c4578281556001016118b1565b505050505050565b815167ffffffffffffffff8111156118e6576118e6611554565b6118fa816118f484546117c6565b8461187e565b602080601f83116001811461192f57600084156119175750858301515b600019600386901b1c1916600185901b1785556118c4565b600085815260208120601f198616915b8281101561195e5788860151825594840194600190910190840161193f565b508582101561197c5787850151600019600388901b60f8161c191681555b5050505050600190811b01905550565b6001600160a01b03858116825284166020820152604081018390526080606082018190526000906119bf908301846114b6565b9695505050505050565b6000602082840312156119db57600080fd5b8151610e9e8161145f565b600083516119f8818460208801611492565b835190830190611a0c818360208801611492565b01949350505050565b8181038181111561030d5761030d611800565b634e487b7160e01b600052603160045260246000fdfea26469706673582212204d66cd9750c64907556ec42f2057d9fdc699ee560e9fa432125676896be7730d64736f6c63430008140033",
    "linkReferences": {},
    "deployedLinkReferences": {}
}